{
  "contractName": "Voting",
  "abi": [
    {
      "inputs": [],
      "stateMutability": "nonpayable",
      "type": "constructor"
    },
    {
      "inputs": [
        {
          "internalType": "uint256",
          "name": "",
          "type": "uint256"
        }
      ],
      "name": "candidates",
      "outputs": [
        {
          "internalType": "string",
          "name": "name",
          "type": "string"
        },
        {
          "internalType": "uint256",
          "name": "voteCount",
          "type": "uint256"
        }
      ],
      "stateMutability": "view",
      "type": "function",
      "constant": true
    },
    {
      "inputs": [],
      "name": "candidatesCount",
      "outputs": [
        {
          "internalType": "uint256",
          "name": "",
          "type": "uint256"
        }
      ],
      "stateMutability": "view",
      "type": "function",
      "constant": true
    },
    {
      "inputs": [],
      "name": "owner",
      "outputs": [
        {
          "internalType": "address",
          "name": "",
          "type": "address"
        }
      ],
      "stateMutability": "view",
      "type": "function",
      "constant": true
    },
    {
      "inputs": [
        {
          "internalType": "address",
          "name": "",
          "type": "address"
        }
      ],
      "name": "voters",
      "outputs": [
        {
          "internalType": "bool",
          "name": "",
          "type": "bool"
        }
      ],
      "stateMutability": "view",
      "type": "function",
      "constant": true
    },
    {
      "inputs": [
        {
          "internalType": "string",
          "name": "_name",
          "type": "string"
        }
      ],
      "name": "addCandidate",
      "outputs": [],
      "stateMutability": "nonpayable",
      "type": "function"
    },
    {
      "inputs": [
        {
          "internalType": "uint256",
          "name": "_candidateId",
          "type": "uint256"
        }
      ],
      "name": "vote",
      "outputs": [],
      "stateMutability": "nonpayable",
      "type": "function"
    },
    {
      "inputs": [
        {
          "internalType": "uint256",
          "name": "_candidateId",
          "type": "uint256"
        }
      ],
      "name": "getCandidate",
      "outputs": [
        {
          "internalType": "string",
          "name": "name",
          "type": "string"
        },
        {
          "internalType": "uint256",
          "name": "voteCount",
          "type": "uint256"
        }
      ],
      "stateMutability": "view",
      "type": "function",
      "constant": true
    }
  ],
  "bytecode": "0x608060405234801561001057600080fd5b50336000806101000a81548173ffffffffffffffffffffffffffffffffffffffff021916908373ffffffffffffffffffffffffffffffffffffffff160217905550610c70806100606000396000f3fe608060405234801561001057600080fd5b506004361061007d5760003560e01c806335b8e8201161005b57806335b8e820146100ed578063462e91ec1461011e5780638da5cb5b1461013a578063a3ec138d146101585761007d565b80630121b93f146100825780632d35a8a21461009e5780633477ee2e146100bc575b600080fd5b61009c60048036038101906100979190610796565b610188565b005b6100a66102ed565b6040516100b391906109d1565b60405180910390f35b6100d660048036038101906100d19190610796565b6102f3565b6040516100e4929190610941565b60405180910390f35b61010760048036038101906101029190610796565b61039f565b604051610115929190610941565b60405180910390f35b61013860048036038101906101339190610755565b6104b5565b005b6101426105b3565b60405161014f919061090b565b60405180910390f35b610172600480360381019061016d919061072c565b6105d7565b60405161017f9190610926565b60405180910390f35b600260003373ffffffffffffffffffffffffffffffffffffffff1673ffffffffffffffffffffffffffffffffffffffff16815260200190815260200160002060009054906101000a900460ff1615610215576040517f08c379a000000000000000000000000000000000000000000000000000000000815260040161020c906109b1565b60405180910390fd5b60008110158015610227575060035481105b610266576040517f08c379a000000000000000000000000000000000000000000000000000000000815260040161025d90610991565b60405180910390fd5b6001600260003373ffffffffffffffffffffffffffffffffffffffff1673ffffffffffffffffffffffffffffffffffffffff16815260200190815260200160002060006101000a81548160ff0219169083151502179055506001600082815260200190815260200160002060010160008154809291906102e590610b25565b919050555050565b60035481565b600160205280600052604060002060009150905080600001805461031690610af3565b80601f016020809104026020016040519081016040528092919081815260200182805461034290610af3565b801561038f5780601f106103645761010080835404028352916020019161038f565b820191906000526020600020905b81548152906001019060200180831161037257829003601f168201915b5050505050908060010154905082565b606060008083101580156103b4575060035483105b6103f3576040517f08c379a00000000000000000000000000000000000000000000000000000000081526004016103ea90610991565b60405180910390fd5b60016000848152602001908152602001600020600001600160008581526020019081526020016000206001015481805461042c90610af3565b80601f016020809104026020016040519081016040528092919081815260200182805461045890610af3565b80156104a55780601f1061047a576101008083540402835291602001916104a5565b820191906000526020600020905b81548152906001019060200180831161048857829003601f168201915b5050505050915091509150915091565b60008054906101000a900473ffffffffffffffffffffffffffffffffffffffff1673ffffffffffffffffffffffffffffffffffffffff163373ffffffffffffffffffffffffffffffffffffffff1614610543576040517f08c379a000000000000000000000000000000000000000000000000000000000815260040161053a90610971565b60405180910390fd5b60405180604001604052808281526020016000815250600160006003548152602001908152602001600020600082015181600001908051906020019061058a9291906105f7565b5060208201518160010155905050600360008154809291906105ab90610b25565b919050555050565b60008054906101000a900473ffffffffffffffffffffffffffffffffffffffff1681565b60026020528060005260406000206000915054906101000a900460ff1681565b82805461060390610af3565b90600052602060002090601f016020900481019282610625576000855561066c565b82601f1061063e57805160ff191683800117855561066c565b8280016001018555821561066c579182015b8281111561066b578251825591602001919060010190610650565b5b509050610679919061067d565b5090565b5b8082111561069657600081600090555060010161067e565b5090565b60006106ad6106a884610a1d565b6109ec565b9050828152602081018484840111156106c557600080fd5b6106d0848285610ab1565b509392505050565b6000813590506106e781610c0c565b92915050565b600082601f8301126106fe57600080fd5b813561070e84826020860161069a565b91505092915050565b60008135905061072681610c23565b92915050565b60006020828403121561073e57600080fd5b600061074c848285016106d8565b91505092915050565b60006020828403121561076757600080fd5b600082013567ffffffffffffffff81111561078157600080fd5b61078d848285016106ed565b91505092915050565b6000602082840312156107a857600080fd5b60006107b684828501610717565b91505092915050565b6107c881610a69565b82525050565b6107d781610a7b565b82525050565b60006107e882610a4d565b6107f28185610a58565b9350610802818560208601610ac0565b61080b81610bfb565b840191505092915050565b6000610823602183610a58565b91507f4f6e6c79206f776e65722063616e2063616c6c20746869732066756e6374696f60008301527f6e000000000000000000000000000000000000000000000000000000000000006020830152604082019050919050565b6000610889601183610a58565b91507f496e76616c69642063616e6469646174650000000000000000000000000000006000830152602082019050919050565b60006108c9601683610a58565b91507f596f75206861766520616c726561647920766f746564000000000000000000006000830152602082019050919050565b61090581610aa7565b82525050565b600060208201905061092060008301846107bf565b92915050565b600060208201905061093b60008301846107ce565b92915050565b6000604082019050818103600083015261095b81856107dd565b905061096a60208301846108fc565b9392505050565b6000602082019050818103600083015261098a81610816565b9050919050565b600060208201905081810360008301526109aa8161087c565b9050919050565b600060208201905081810360008301526109ca816108bc565b9050919050565b60006020820190506109e660008301846108fc565b92915050565b6000604051905081810181811067ffffffffffffffff82111715610a1357610a12610bcc565b5b8060405250919050565b600067ffffffffffffffff821115610a3857610a37610bcc565b5b601f19601f8301169050602081019050919050565b600081519050919050565b600082825260208201905092915050565b6000610a7482610a87565b9050919050565b60008115159050919050565b600073ffffffffffffffffffffffffffffffffffffffff82169050919050565b6000819050919050565b82818337600083830152505050565b60005b83811015610ade578082015181840152602081019050610ac3565b83811115610aed576000848401525b50505050565b60006002820490506001821680610b0b57607f821691505b60208210811415610b1f57610b1e610b9d565b5b50919050565b6000610b3082610aa7565b91507fffffffffffffffffffffffffffffffffffffffffffffffffffffffffffffffff821415610b6357610b62610b6e565b5b600182019050919050565b7f4e487b7100000000000000000000000000000000000000000000000000000000600052601160045260246000fd5b7f4e487b7100000000000000000000000000000000000000000000000000000000600052602260045260246000fd5b7f4e487b7100000000000000000000000000000000000000000000000000000000600052604160045260246000fd5b6000601f19601f8301169050919050565b610c1581610a69565b8114610c2057600080fd5b50565b610c2c81610aa7565b8114610c3757600080fd5b5056fea264697066735822122056889c1cbff11c697ff57922fcb582ac5b910b5e8972e0d716315e6ee396d33964736f6c63430008000033",
  "immutableReferences": {},
  "source": "// SPDX-License-Identifier: MIT\npragma solidity 0.8.0;\n\ncontract Voting {\n    // Defines a candidate with a name and vote count\n    struct Candidate {\n        string name;\n        uint voteCount;\n    }\n\n    // Stores the address of the contract owner\n    address public owner;\n    mapping(uint => Candidate) public candidates; // Maps candidate IDs to candidates\n    mapping(address => bool) public voters; // Tracks if an address has voted\n    uint public candidatesCount; // Keeps count of the number of candidates\n\n    // Sets the contract deployer as the owner\n    constructor() {\n        owner = msg.sender;\n    }\n\n    // Restricts certain functions to the owner\n    modifier onlyOwner() {\n        require(msg.sender == owner, \"Only owner can call this function\");\n        _;\n    }\n\n    // Allows the owner to add a new candidate\n    function addCandidate(string memory _name) public onlyOwner {\n        candidates[candidatesCount] = Candidate(_name, 0);\n        candidatesCount++;\n    }\n\n    // Allows user to vote for a candidate\n    function vote(uint _candidateId) public {\n        require(!voters[msg.sender], \"You have already voted\");\n        require(\n            _candidateId >= 0 && _candidateId < candidatesCount,\n            \"Invalid candidate\"\n        );\n\n        voters[msg.sender] = true;\n        candidates[_candidateId].voteCount++;\n    }\n\n    // Returns the candidate's name and vote count\n    function getCandidate(\n        uint _candidateId\n    ) public view returns (string memory name, uint voteCount) {\n        require(\n            _candidateId >= 0 && _candidateId < candidatesCount,\n            \"Invalid candidate\"\n        );\n        return (\n            candidates[_candidateId].name,\n            candidates[_candidateId].voteCount\n        );\n    }\n}\n",
  "sourcePath": "/Users/mrrachel/code/repos/smart-contracts/blockvote/contracts/Voting.sol",
  "compiler": {
    "name": "solc",
    "version": "0.8.0+commit.c7dfd78e.Emscripten.clang"
  },
  "schemaVersion": "3.4.16",
  "updatedAt": "2024-07-29T19:35:05.863Z",
  "networkType": "ethereum",
  "devdoc": {
    "kind": "dev",
    "methods": {},
    "version": 1
  },
  "userdoc": {
    "kind": "user",
    "methods": {},
    "version": 1
  }
}