{
  "contractName": "Voting",
  "abi": [
    {
      "inputs": [],
      "stateMutability": "nonpayable",
      "type": "constructor"
    },
    {
      "inputs": [
        {
          "internalType": "uint256",
          "name": "",
          "type": "uint256"
        }
      ],
      "name": "candidates",
      "outputs": [
        {
          "internalType": "string",
          "name": "name",
          "type": "string"
        },
        {
          "internalType": "uint256",
          "name": "voteCount",
          "type": "uint256"
        }
      ],
      "stateMutability": "view",
      "type": "function"
    },
    {
      "inputs": [],
      "name": "candidatesCount",
      "outputs": [
        {
          "internalType": "uint256",
          "name": "",
          "type": "uint256"
        }
      ],
      "stateMutability": "view",
      "type": "function"
    },
    {
      "inputs": [],
      "name": "owner",
      "outputs": [
        {
          "internalType": "address",
          "name": "",
          "type": "address"
        }
      ],
      "stateMutability": "view",
      "type": "function"
    },
    {
      "inputs": [
        {
          "internalType": "address",
          "name": "",
          "type": "address"
        }
      ],
      "name": "voters",
      "outputs": [
        {
          "internalType": "bool",
          "name": "",
          "type": "bool"
        }
      ],
      "stateMutability": "view",
      "type": "function"
    },
    {
      "inputs": [
        {
          "internalType": "string",
          "name": "_name",
          "type": "string"
        }
      ],
      "name": "addCandidate",
      "outputs": [],
      "stateMutability": "nonpayable",
      "type": "function"
    },
    {
      "inputs": [
        {
          "internalType": "uint256",
          "name": "_candidateID",
          "type": "uint256"
        }
      ],
      "name": "vote",
      "outputs": [],
      "stateMutability": "nonpayable",
      "type": "function"
    },
    {
      "inputs": [
        {
          "internalType": "uint256",
          "name": "_candidateId",
          "type": "uint256"
        }
      ],
      "name": "getCandidate",
      "outputs": [
        {
          "internalType": "string",
          "name": "name",
          "type": "string"
        },
        {
          "internalType": "uint256",
          "name": "voteCount",
          "type": "uint256"
        }
      ],
      "stateMutability": "view",
      "type": "function"
    }
  ],
  "bytecode": "0x608060405234801561000f575f80fd5b50335f806101000a81548173ffffffffffffffffffffffffffffffffffffffff021916908373ffffffffffffffffffffffffffffffffffffffff160217905550610e3d8061005c5f395ff3fe608060405234801561000f575f80fd5b506004361061007b575f3560e01c806335b8e8201161005957806335b8e820146100ea578063462e91ec1461011b5780638da5cb5b14610137578063a3ec138d146101555761007b565b80630121b93f1461007f5780632d35a8a21461009b5780633477ee2e146100b9575b5f80fd5b6100996004803603810190610094919061060e565b610185565b005b6100a36102e0565b6040516100b09190610648565b60405180910390f35b6100d360048036038101906100ce919061060e565b6102e6565b6040516100e19291906106eb565b60405180910390f35b61010460048036038101906100ff919061060e565b61038c565b6040516101129291906106eb565b60405180910390f35b61013560048036038101906101309190610845565b61049a565b005b61013f61058a565b60405161014c91906108cb565b60405180910390f35b61016f600480360381019061016a919061090e565b6105ad565b60405161017c9190610953565b60405180910390f35b60025f3373ffffffffffffffffffffffffffffffffffffffff1673ffffffffffffffffffffffffffffffffffffffff1681526020019081526020015f205f9054906101000a900460ff161561020f576040517f08c379a0000000000000000000000000000000000000000000000000000000008152600401610206906109b6565b60405180910390fd5b5f8110158015610220575060035481105b61025f576040517f08c379a000000000000000000000000000000000000000000000000000000000815260040161025690610a1e565b60405180910390fd5b600160025f3373ffffffffffffffffffffffffffffffffffffffff1673ffffffffffffffffffffffffffffffffffffffff1681526020019081526020015f205f6101000a81548160ff02191690831515021790555060015f8281526020019081526020015f206001015f8154809291906102d890610a69565b919050555050565b60035481565b6001602052805f5260405f205f91509050805f01805461030590610add565b80601f016020809104026020016040519081016040528092919081815260200182805461033190610add565b801561037c5780601f106103535761010080835404028352916020019161037c565b820191905f5260205f20905b81548152906001019060200180831161035f57829003601f168201915b5050505050908060010154905082565b60605f8083101580156103a0575060035483105b6103df576040517f08c379a00000000000000000000000000000000000000000000000000000000081526004016103d690610a1e565b60405180910390fd5b60015f8481526020019081526020015f205f0160015f8581526020019081526020015f206001015481805461041390610add565b80601f016020809104026020016040519081016040528092919081815260200182805461043f90610add565b801561048a5780601f106104615761010080835404028352916020019161048a565b820191905f5260205f20905b81548152906001019060200180831161046d57829003601f168201915b5050505050915091509150915091565b5f8054906101000a900473ffffffffffffffffffffffffffffffffffffffff1673ffffffffffffffffffffffffffffffffffffffff163373ffffffffffffffffffffffffffffffffffffffff1614610527576040517f08c379a000000000000000000000000000000000000000000000000000000000815260040161051e90610b7d565b60405180910390fd5b60405180604001604052808281526020015f81525060015f60035481526020019081526020015f205f820151815f0190816105629190610d38565b506020820151816001015590505060035f81548092919061058290610a69565b919050555050565b5f8054906101000a900473ffffffffffffffffffffffffffffffffffffffff1681565b6002602052805f5260405f205f915054906101000a900460ff1681565b5f604051905090565b5f80fd5b5f80fd5b5f819050919050565b6105ed816105db565b81146105f7575f80fd5b50565b5f81359050610608816105e4565b92915050565b5f60208284031215610623576106226105d3565b5b5f610630848285016105fa565b91505092915050565b610642816105db565b82525050565b5f60208201905061065b5f830184610639565b92915050565b5f81519050919050565b5f82825260208201905092915050565b5f5b8381101561069857808201518184015260208101905061067d565b5f8484015250505050565b5f601f19601f8301169050919050565b5f6106bd82610661565b6106c7818561066b565b93506106d781856020860161067b565b6106e0816106a3565b840191505092915050565b5f6040820190508181035f83015261070381856106b3565b90506107126020830184610639565b9392505050565b5f80fd5b5f80fd5b7f4e487b71000000000000000000000000000000000000000000000000000000005f52604160045260245ffd5b610757826106a3565b810181811067ffffffffffffffff8211171561077657610775610721565b5b80604052505050565b5f6107886105ca565b9050610794828261074e565b919050565b5f67ffffffffffffffff8211156107b3576107b2610721565b5b6107bc826106a3565b9050602081019050919050565b828183375f83830152505050565b5f6107e96107e484610799565b61077f565b9050828152602081018484840111156108055761080461071d565b5b6108108482856107c9565b509392505050565b5f82601f83011261082c5761082b610719565b5b813561083c8482602086016107d7565b91505092915050565b5f6020828403121561085a576108596105d3565b5b5f82013567ffffffffffffffff811115610877576108766105d7565b5b61088384828501610818565b91505092915050565b5f73ffffffffffffffffffffffffffffffffffffffff82169050919050565b5f6108b58261088c565b9050919050565b6108c5816108ab565b82525050565b5f6020820190506108de5f8301846108bc565b92915050565b6108ed816108ab565b81146108f7575f80fd5b50565b5f81359050610908816108e4565b92915050565b5f60208284031215610923576109226105d3565b5b5f610930848285016108fa565b91505092915050565b5f8115159050919050565b61094d81610939565b82525050565b5f6020820190506109665f830184610944565b92915050565b7f596f75206861766520616c726561647920766f746564000000000000000000005f82015250565b5f6109a060168361066b565b91506109ab8261096c565b602082019050919050565b5f6020820190508181035f8301526109cd81610994565b9050919050565b7f496e76616c69642063616e6469646174650000000000000000000000000000005f82015250565b5f610a0860118361066b565b9150610a13826109d4565b602082019050919050565b5f6020820190508181035f830152610a35816109fc565b9050919050565b7f4e487b71000000000000000000000000000000000000000000000000000000005f52601160045260245ffd5b5f610a73826105db565b91507fffffffffffffffffffffffffffffffffffffffffffffffffffffffffffffffff8203610aa557610aa4610a3c565b5b600182019050919050565b7f4e487b71000000000000000000000000000000000000000000000000000000005f52602260045260245ffd5b5f6002820490506001821680610af457607f821691505b602082108103610b0757610b06610ab0565b5b50919050565b7f4f6e6c79206f776e65722063616e2063616c6c20746869732066756e6374696f5f8201527f6e00000000000000000000000000000000000000000000000000000000000000602082015250565b5f610b6760218361066b565b9150610b7282610b0d565b604082019050919050565b5f6020820190508181035f830152610b9481610b5b565b9050919050565b5f819050815f5260205f209050919050565b5f6020601f8301049050919050565b5f82821b905092915050565b5f60088302610bf77fffffffffffffffffffffffffffffffffffffffffffffffffffffffffffffffff82610bbc565b610c018683610bbc565b95508019841693508086168417925050509392505050565b5f819050919050565b5f610c3c610c37610c32846105db565b610c19565b6105db565b9050919050565b5f819050919050565b610c5583610c22565b610c69610c6182610c43565b848454610bc8565b825550505050565b5f90565b610c7d610c71565b610c88818484610c4c565b505050565b5b81811015610cab57610ca05f82610c75565b600181019050610c8e565b5050565b601f821115610cf057610cc181610b9b565b610cca84610bad565b81016020851015610cd9578190505b610ced610ce585610bad565b830182610c8d565b50505b505050565b5f82821c905092915050565b5f610d105f1984600802610cf5565b1980831691505092915050565b5f610d288383610d01565b9150826002028217905092915050565b610d4182610661565b67ffffffffffffffff811115610d5a57610d59610721565b5b610d648254610add565b610d6f828285610caf565b5f60209050601f831160018114610da0575f8415610d8e578287015190505b610d988582610d1d565b865550610dff565b601f198416610dae86610b9b565b5f5b82811015610dd557848901518255600182019150602085019450602081019050610db0565b86831015610df25784890151610dee601f891682610d01565b8355505b6001600288020188555050505b50505050505056fea2646970667358221220062edc99cce1709ab887005c4053dfdaebcc45041e8acc14f26aa267f902155164736f6c63430008150033",
  "immutableReferences": {},
  "source": "// SPDX-License-Identifier: MIT\npragma solidity 0.8.21;\n\ncontract Voting {\n\n  // Defines a candidate with a name and vote count\n  struct Candidate {\n    string name;\n    uint voteCount;\n  }\n\n  // Stores the address of the contract owner\n  address public owner;\n  mapping(uint => Candidate) public candidates; // Maps candidate IDs to candidates\n  mapping(address => bool) public voters; // Tracks if an address has voted\n  uint public candidatesCount; // Keeps count of the number of candidates\n\n  // Sets the contract deployer as the owner\n  constructor() {\n    owner = msg.sender;\n  }\n\n  // Restricts certain functions to the owner\n  modifier onlyOwner() {\n    require(msg.sender == owner, \"Only owner can call this function\");\n    _;\n  }\n\n  // Allows the owner to add a new candidate\n  function addCandidate(string memory _name) public onlyOwner {\n    candidates[candidatesCount] = Candidate(_name, 0);\n    candidatesCount++;\n  }\n\n  // Allows user to vote for a candidate\n  function vote(uint _candidateID) public {\n    require(!voters[msg.sender], \"You have already voted\");\n    require(_candidateID >= 0 && _candidateID < candidatesCount, \"Invalid candidate\");\n\n    voters[msg.sender] = true;\n    candidates[_candidateID].voteCount++;\n  }\n\n  // Returns the candidate's name and vote count\n  function getCandidate(uint _candidateId) public view returns (string memory name, uint voteCount) {\n    require(_candidateId >= 0 && _candidateId < candidatesCount, \"Invalid candidate\");\n    return (candidates[_candidateId].name, candidates[_candidateId].voteCount);\n  }\n\n}",
  "sourcePath": "/Users/mrrachel/code/repos/smart-contracts/blockvote/contracts/Voting.sol",
  "compiler": {
    "name": "solc",
    "version": "0.8.21+commit.d9974bed.Emscripten.clang"
  },
  "schemaVersion": "3.4.16",
  "updatedAt": "2024-07-29T01:29:06.982Z",
  "devdoc": {
    "kind": "dev",
    "methods": {},
    "version": 1
  },
  "userdoc": {
    "kind": "user",
    "methods": {},
    "version": 1
  }
}